:020000040800F2
:10000000005000203D1300086D1200087512000812
:100010007D120008851200088D1200080000000003
:100020000000000000000000000000009512000821
:10003000A112000800000000AD120008B91200086B
:100040008513000885130008851300088513000830
:100050008513000885130008851300088513000820
:100060008513000885130008851300088513000810
:100070008513000885130008851300088513000800
:1000800085130008851300088513000885130008F0
:1000900085130008851300088513000885130008E0
:1000A00085130008851300088513000885130008D0
:1000B00085130008851300088513000885130008C0
:1000C00085130008851300088513000885130008B0
:1000D00085130008851300088513000885130008A0
:1000E0008513000885130008851300080000000030
:1000F0000000000000000000000000000000000000
:0C01000000000000000000005FF808F1A3
:10010C0010B5054C237833B9044B13B10448AFF345
:10011C0000800123237010BD5C0000200000000053
:10012C005C39000808B5034B1BB103490348AFF316
:10013C00008008BD00000000600000205C39000851
:10014C00034613F8012B002AFBD1181A013870470B
:10015C0080B5ADF5E96D00AF01F010F900F070FE5F
:10016C0000F042FF00F0B2FE00F014FF07F5E96367
:10017C00A3F50C7318464FF400731A46002102F0D5
:10018C0035FF0123C7F8383707F1D803D94918468A
:10019C0002F00AFF07F17403D749184602F004FF76
:1001AC0007F11003D549184602F0FEFE3B46D44930
:1001BC00184602F0F9FE07F1D8031846FFF7C0FF06
:1001CC000346C7F8243707F174031846FFF7B8FF46
:1001DC000346C7F8203707F110031846FFF7B0FFA6
:1001EC000346C7F81C373B461846FFF7A9FF0346E2
:1001FC00C7F8183707F59B63C249184602F0D4FEBE
:10020C0007F5A3634FF400720021184602F0EEFECE
:10021C0007F59B631846FFF793FF03469AB207F561
:10022C009B614FF47A73B84802F052FC07F5A36156
:10023C0064234FF40072B44802F0D5FC4FF4FA700A
:10024C0001F0FEF8002387F8473734E007F59B638D
:10025C00AE49184602F0A8FE07F5A3634FF40072EE
:10026C000021184602F0C2FE07F59B631846FFF703
:10027C0067FF03469AB207F59B614FF47A73A24865
:10028C0002F026FC07F5A3614FF47A734FF4007269
:10029C009D4802F0A8FC07F5A3639D49184602F09F
:1002AC00BAFE0346002B02D0012387F847374FF4E0
:1002BC00FA7001F0C5F897F84737002BC6D0002329
:1002CC0087F8473734E007F59B639249184602F0EC
:1002DC006BFE07F5A3634FF400720021184602F081
:1002EC0085FE07F59B631846FFF72AFF03469AB273
:1002FC0007F59B614FF47A73834802F0E9FB07F52D
:10030C00A3614FF47A734FF400727F4802F06BFCD8
:10031C0007F5A3637E49184602F07DFE0346002BC9
:10032C0002D0012387F847374FF4FA7001F088F8B0
:10033C0097F84737002BC6D0002387F8473734E0AF
:10034C0007F59B637449184602F02EFE07F5A3636C
:10035C004FF400720021184602F048FE07F59B632B
:10036C001846FFF7EDFE03469AB207F59B614FF472
:10037C007A73654802F0ACFB07F5A3614FF47A730E
:10038C004FF40072604802F02EFC07F5A36360493D
:10039C00184602F040FE0346002B02D0012387F8DA
:1003AC0047374FF4FA7001F04BF897F84737002BAA
:1003BC00C6D0002387F8473734E007F59B635749CD
:1003CC00184602F0F1FD07F5A3634FF4007200210B
:1003DC00184602F00BFE07F59B631846FFF7B0FEBC
:1003EC0003469AB207F59B614FF47A73464802F0C4
:1003FC006FFB07F5A3614FF47A734FF40072424818
:10040C0002F0F1FB07F5A3634149184602F003FE25
:10041C000346002B02D0012387F847374FF4FA70BC
:10042C0001F00EF897F84737002BC6D0002387F859
:10043C00473734E007F59B633949184602F0B4FDA1
:10044C0007F5A3634FF400720021184602F0CEFDAD
:10045C0007F59B631846FFF773FE03469AB207F540
:10046C009B614FF47A73284802F032FB07F5A361C5
:10047C004FF47A734FF40072234802F0B4FB07F583
:10048C00A3632349184602F0C6FD0346002B02D095
:10049C00012387F847374FF4FA7000F0D1FF97F833
:1004AC004737002BC6D004211E4801F0E5FE082179
:1004BC001C4801F0E1FE07F5A3634FF40072002124
:1004CC00184602F093FD07F5A3614FF47A734FF4CD
:1004DC0000720D4802F087FB07F5A363124918461A
:1004EC0002F099FD0346002B20D00023C7F84037BB
:1004FC007AE000BF743900086C3C0008C43C00086A
:10050C00183D0008283D0008C0000020343D0008BC
:10051C00483D00084C3D0008783D0008983D000817
:10052C00A83D000878000020BC3D000807F5A36337
:10053C00A149184602F06FFD0346002B03D001239E
:10054C00C7F8403750E007F5A3639C49184602F002
:10055C0062FD0346002B03D00223C7F8403743E06B
:10056C0007F5A3639649184602F055FD0346002B88
:10057C0003D00323C7F8403736E007F5A36391494E
:10058C00184602F048FD0346002B03D00423C7F89D
:10059C00403729E007F5A3638B49184602F03BFD71
:1005AC000346002B03D00523C7F840371CE007F5A2
:1005BC00A3638649184602F02EFD0346002B03D098
:1005CC000623C7F840370FE007F5A36380491846A8
:1005DC0002F021FD0346002B03D00723C7F8403758
:1005EC0002E06423C7F8403707F5A363794918463E
:1005FC0002F011FD0346002B03D00023C7F83C3753
:10060C0010E007F5A3637449184602F004FD034695
:10061C00002B03D00123C7F83C3703E0D7F8383759
:10062C00C7F83C37D7F84037072B00F3E180D7F8F1
:10063C003C37012B40F0DC800023C7F8343711E045
:10064C004FF08042D7F8343793634FF08042D7F89D
:10065C003437D363012000F0F3FED7F8343701337D
:10066C00C7F83437D7F83437FF2BE9DD01220121E5
:10067C005A4801F088F901220821584801F083F901
:10068C0000221021554801F07EF901224FF400514F
:10069C00534801F078F90123C7F83837D7F82427E5
:1006AC00D7F81C371A44D7F81837134407F59B6052
:1006BC00D7F840274B4902F077FC07F5A3634FF4BA
:1006CC0000720021184602F091FC07F59B63184656
:1006DC00FFF736FD03469AB207F59B614FF47A7328
:1006EC00414802F0F5F907F5A36164234FF4007259
:1006FC003D4802F078FA07F5A3633E21184602F054
:10070C007DFC0346002B2CD007F5A3634FF400723D
:10071C000021184602F06AFCD7F824379AB207F188
:10072C00D8014FF47A73304802F0D2F9D7F81C375D
:10073C009AB207F110014FF47A732B4802F0C8F902
:10074C00D7F818379AB239464FF47A73264802F024
:10075C00BFF907F5A36164234FF40072224802F03D
:10076C0042FA07F59B63D7F840272049184602F058
:10077C001BFC07F5A3634FF400720021184602F02E
:10078C0035FC07F59B631846FFF7DAFC03469AB273
:10079C0007F59B614FF47A73134802F099F907F54A
:1007AC00A36164234FF400720F4802F01CFA642317
:1007BC00C7F84037C0E000BFC43D0008CC3D00087E
:1007CC00D43D0008DC3D0008E43D0008EC3D000889
:1007DC00F43D0008FC3D00080C3E000800080140F8
:1007EC00001001401C3E0008C0000020303E0008F4
:1007FC00D7F84037072B00F39F80D7F83C37002BF6
:10080C0040F09A8001221021CD4801F0BCF8002262
:10081C004FF40051CB4801F0B6F80023C7F8383735
:10082C00D7F82427D7F820371A44D7F818371344A9
:10083C0007F59B60D7F84027C34902F0B5FB07F5D5
:10084C00A3634FF400720021184602F0CFFB07F5AA
:10085C009B631846FFF774FC03469AB207F59B613D
:10086C004FF47A73B94802F033F907F5A3616423A6
:10087C004FF40072B54802F0B6F907F5A3633E21B8
:10088C00184602F0BBFB0346002B2CD007F5A363E4
:10089C004FF400720021184602F0A8FBD7F8243759
:1008AC009AB207F1D8014FF47A73A84802F010F904
:1008BC00D7F820379AB207F174014FF47A73A34832
:1008CC0002F006F9D7F818379AB239464FF47A7312
:1008DC009E4802F0FDF807F5A36164234FF4007203
:1008EC009A4802F080F907F59B63D7F8402798499E
:1008FC00184602F059FB07F5A3634FF40072002170
:10090C00184602F073FB07F59B631846FFF718FCBB
:10091C0003469AB207F59B614FF47A738B4802F049
:10092C00D7F807F5A36164234FF40072874802F0EF
:10093C005AF96423C7F840374021814801F00CF87C
:10094C000346002B7FF4B7AD0023C7F8303707F50B
:10095C00A3638049184602F05EFB0346002B03D0CC
:10096C000023C7F83C3756E207F5A3637A491846CB
:10097C0002F051FB0346002B03D00123C7F83C3790
:10098C0049E2D7F83837C7F83C3744E240216C4885
:10099C0000F0E2FF0346002B04D1D7F830370133C7
:1009AC00C7F83037D7F83037012B40F0BF80002321
:1009BC00C7F82C3711E04FF08042D7F82C379363EF
:1009CC004FF08042D7F82C37D363012000F038FD6C
:1009DC00D7F82C370133C7F82C37D7F82C37FF2B27
:1009EC00E9DD01220121564800F0CDFF012208214A
:1009FC00534800F0C8FF00221021514800F0C3FFFB
:100A0C0001224FF400514F4800F0BDFF0123C7F8FD
:100A1C003837D7F82427D7F81C371A44D7F81837A3
:100A2C00134407F59B60D7F84027474902F0BCFAFE
:100A3C0007F5A3634FF400720021184602F0D6FAB2
:100A4C0007F59B631846FFF77BFB03469AB207F545
:100A5C009B614FF47A733D4802F03AF807F5A361B5
:100A6C0064234FF40072394802F0BDF807F5A36314
:100A7C003E21184602F0C2FA0346002B2CD007F593
:100A8C00A3634FF400720021184602F0AFFAD7F8B6
:100A9C0024379AB207F1D8014FF47A732B4802F03D
:100AAC0017F8D7F81C379AB207F110014FF47A7384
:100ABC00264802F00DF8D7F818379AB239464FF499
:100ACC007A73224802F004F807F5A36164234FF40B
:100ADC0000721E4802F087F807F59B63D7F8402791
:100AEC001B49184602F060FA07F5A3634FF4007235
:100AFC000021184602F07AFA07F59B631846FFF7B7
:100B0C001FFB03469AB207F59B614FF47A730F48AB
:100B1C0001F0DEFF07F5A36164234FF400720B486C
:100B2C0002F061F86423C7F8403774E1D7F8303726
:100B3C00022B40F0CE800023C7F8283720E000BFFE
:100B4C0000080140001001401C3E0008C0000020BD
:100B5C00303E0008FC3D00080C3E00084FF080427F
:100B6C00D7F8283793634FF08042D7F82837D363F0
:100B7C00012000F065FCD7F828370133C7F8283777
:100B8C00D7F82837FF2BE9DD00220121A74800F018
:100B9C00FAFE00220821A54800F0F5FE00221021E3
:100BAC00A24800F0F0FE01224FF40051A04800F0E2
:100BBC00EAFE0123C7F83837D7F82427D7F81C37B3
:100BCC001A44D7F81837134407F59B60D7F8402719
:100BDC00984902F0E9F907F5A3634FF4007200217C
:100BEC00184602F003FA07F59B631846FFF7A8FABC
:100BFC0003469AB207F59B614FF47A738E4801F065
:100C0C0067FF07F5A36164234FF400728A4801F073
:100C1C00EAFF07F5A3633E21184602F0EFF90346FD
:100C2C00002B2CD007F5A3634FF40072002118465B
:100C3C0002F0DCF9D7F824379AB207F1D8014FF457
:100C4C007A737D4801F044FFD7F81C379AB207F14C
:100C5C0010014FF47A73784801F03AFFD7F818373F
:100C6C009AB239464FF47A73734801F031FF07F5A5
:100C7C00A36164234FF400726F4801F0B4FF07F5D1
:100C8C009B63D7F840276D49184602F08DF907F59C
:100C9C00A3634FF400720021184602F0A7F907F580
:100CAC009B631846FFF74CFA03469AB207F59B6113
:100CBC004FF47A73604801F00BFF07F5A3616423CE
:100CCC004FF400725C4801F08EFF6423C7F8403784
:100CDC00A1E04021554800F03FFE0346012B40F0B7
:100CEC009A8001221021514800F04DFE00224FF451
:100CFC0000514F4800F047FE0023C7F83837D7F8AB
:100D0C002427D7F820371A44D7F81837134407F597
:100D1C009B60D7F84027474902F046F907F5A363D3
:100D2C004FF400720021184602F060F907F59B633E
:100D3C001846FFF705FA03469AB207F59B614FF484
:100D4C007A733D4801F0C4FE07F5A36164234FF4A8
:100D5C000072394801F047FF07F5A3633E2118469E
:100D6C0002F04CF90346002B2CD007F5A3634FF48B
:100D7C0000720021184602F039F9D7F824379AB2DC
:100D8C0007F1D8014FF47A732B4801F0A1FED7F884
:100D9C0020379AB207F174014FF47A73264801F0A8
:100DAC0097FED7F818379AB239464FF47A7322481F
:100DBC0001F08EFE07F5A36164234FF400721E4808
:100DCC0001F011FF07F59B63D7F840271B49184624
:100DDC0002F0EAF807F5A3634FF4007200211846FD
:100DEC0002F004F907F59B631846FFF7A9F90346CF
:100DFC009AB207F59B614FF47A730F4801F068FEC5
:100E0C0007F5A36164234FF400720B4801F0EBFE6D
:100E1C006423C7F840374021044800F09DFD034689
:100E2C00002B3FF4B3ADFFF746BB00BF00080140F9
:100E3C00001001401C3E0008C0000020303E00089D
:100E4C0080B590B000AF07F1180328220021184696
:100E5C0002F0CCF83B1D00221A605A609A60DA60EE
:100E6C001A610123BB614FF48033FB6100233B62A9
:100E7C000123BB6202237B634FF48033BB634FF4CB
:100E8C00E013FB6307F11803184600F095FD0346C9
:100E9C00002B01D000F014F90F237B600223BB6000
:100EAC000023FB604FF480633B6100237B613B1D9F
:100EBC000221184601F002F80346002B01D000F085
:100ECC00FFF800BF4037BD4680BD000080B58AB03A
:100EDC0000AF07F1200300221A605A603B1D00226C
:100EEC001A605A609A60DA601A615A619A61284BEA
:100EFC004FF080421A60264B47225A60244B002246
:100F0C009A60234B4FF6FF72DA60214B00221A6174
:100F1C001F4B00229A611E4801F05EF90346002B1C
:100F2C0001D000F0CDF800233B6200237B6207F177
:100F3C0020031946164801F01DFD0346002B01D075
:100F4C0000F0BEF860237B600023BB600023FB60D5
:100F5C0000237B613B1D042219460D4801F02EFA3B
:100F6C000346002B01D000F0ABF83B1D08221946BC
:100F7C00074801F023FA0346002B01D000F0A0F83B
:100F8C00034800F0F1F800BF2837BD4680BD00BF14
:100F9C007800002080B500AF114B124A1A60104B3C
:100FAC004FF4E1325A600E4B00229A600C4B002237
:100FBC00DA600B4B00221A61094B0C225A61084B68
:100FCC0000229A61064B0022DA61054801F030FDDF
:100FDC000346002B01D000F073F800BF80BD00BFAA
:100FEC00C00000200038014080B588B000AF07F188
:100FFC00100300221A605A609A60DA602D4B9B69CC
:10100C002C4A43F0100393612A4B9B6903F01003A5
:10101C00FB60FB68274B9B69264A43F020039361D6
:10102C00244B9B6903F02003BB60BB68214B9B697D
:10103C00204A43F0040393611E4B9B6903F00403A5
:10104C007B607B6800224FF400511B4800F09BFC36
:10105C0000221921194800F096FC4FF400533B6113
:10106C0001237B610023BB610223FB6107F11003A9
:10107C001946114800F0ECFA19233B6101237B61FE
:10108C000023BB610223FB6107F1100319460B48D7
:10109C0000F0DEFA40233B6100237B610123BB613E
:1010AC0007F110031946054800F0D2FA00BF2037AB
:1010BC00BD4680BD001002400010014000080140F8
:1010CC0080B400AF72B600BF00BFFDE780B485B03E
:1010DC0000AF154B9B69144A43F001039361124B0B
:1010EC009B6903F00103BB60BB680F4BDB690E4AC5
:1010FC0043F08053D3610C4BDB6903F080537B606E
:10110C007B680A4B5B68FB60FB6823F0E063FB6069
:10111C00FB6843F08063FB60044AFB68536000BFCC
:10112C001437BD4680BC70470010024000000140DF
:10113C0080B485B000AF78607B681B68B3F1804FDA
:10114C000BD1084BDB69074A43F00103D361054B14
:10115C00DB6903F00103FB60FB6800BF1437BD467D
:10116C0080BC70470010024080B588B000AF78603A
:10117C0007F1100300221A605A609A60DA607B68EB
:10118C001B68B3F1804F17D10D4B9B690C4A43F090
:10119C00040393610A4B9B6903F00403FB60FB6837
:1011AC0006233B6102237B610223FB6107F11003E1
:1011BC001946044800F04CFA00BF2037BD4680BDEC
:1011CC00001002400008014080B588B000AF786084
:1011DC0007F1100300221A605A609A60DA607B688B
:1011EC001B681C4A934231D11B4B9B691A4A43F42E
:1011FC0080439361184B9B6903F48043FB60FB684D
:10120C00154B9B69144A43F004039361124B9B6981
:10121C0003F00403BB60BB684FF400733B61022313
:10122C007B610323FB6107F1100319460B4800F0A7
:10123C000FFA4FF480633B6100237B610023BB6199
:10124C0007F110031946054800F002FA00BF2037D9
:10125C00BD4680BD0038014000100240000801402E
:10126C0080B400AF00BFFDE780B400AF00BFFDE766
:10127C0080B400AF00BFFDE780B400AF00BFFDE756
:10128C0080B400AF00BFFDE780B400AF00BFBD4627
:10129C0080BC704780B400AF00BFBD4680BC7047B7
:1012AC0080B400AF00BFBD4680BC704780B500AFB6
:1012BC0000F0AAF800BF80BD80B586B000AF7860A2
:1012CC00144A154BD31A7B617B693B61134B1B682A
:1012DC00002B02D1114B124A1A60104B1A687B6812
:1012EC0013443A699A4207D201F0ACFE03460C2231
:1012FC001A604FF0FF3309E0084B1B68FB60074B8B
:10130C001A687B681344054A1360FB681846183743
:10131C00BD4680BD005000200004000008010020E4
:10132C005802002080B400AF00BFBD4680BC70479F
:10133C00FFF7F8FF0B480C490C4A002302E0D45885
:10134C00C4500433C4188C42F9D3094A094C002305
:10135C0001E013600432A242FBD301F079FEFEF7E8
:10136C00F7FE7047000000205C000020B43E00082F
:10137C005C00002058020020FEE7000080B500AFA2
:10138C00084B1B68074A43F010031360032000F05E
:10139C002BF90F2000F008F8FFF798FE00231846F1
:1013AC0080BD00BF0020024080B582B000AF7860E5
:1013BC00124B1A68124B1B7819464FF47A73B3FB15
:1013CC00F1F3B2FBF3F3184600F035F90346002BAA
:1013DC0001D001230EE07B680F2B0AD8002279681C
:1013EC004FF0FF3000F00BF9064A7B6813600023C6
:1013FC0000E0012318460837BD4680BD00000020E0
:10140C00080000200400002080B400AF054B1B78BE
:10141C001A46054B1B681344034A136000BFBD46B4
:10142C0080BC7047080000200C01002080B400AF85
:10143C00024B1B681846BD4680BC70470C0100204F
:10144C0080B584B000AF7860FFF7F0FFB8607B68C0
:10145C00FB60FB68B3F1FF3F05D00A4B1B781A46C3
:10146C00FB681344FB6000BFFFF7E0FF0246BB685C
:10147C00D31AFA689A42F7D800BF00BF1037BD469E
:10148C0080BD00BF0800002080B485B000AF78603C
:10149C007B6803F00703FB600C4BDB68BB60BA682E
:1014AC004FF6FF031340BB60FB681A02BB68134383
:1014BC0043F0BF6343F40033BB60044ABB68D360A2
:1014CC0000BF1437BD4680BC704700BF00ED00E084
:1014DC0080B400AF044BDB681B0A03F0070318460B
:1014EC00BD4680BC704700BF00ED00E080B483B007
:1014FC0000AF03463960FB7197F90730002B0ADB0C
:10150C003B68DAB20C4997F907301201D2B20B449E
:10151C0083F800230AE03B68DAB20849FB7903F050
:10152C000F03043B1201D2B20B441A7600BF0C37E6
:10153C00BD4680BC704700BF00E100E000ED00E05C
:10154C0080B489B000AFF860B9607A60FB6803F0D2
:10155C000703FB61FB69C3F10703042B28BF0423BA
:10156C00BB61FB690433062B02D9FB69033B00E02A
:10157C0000237B614FF0FF32BB6902FA03F3DA43BD
:10158C00BB681A407B699A404FF0FF317B6901FAC6
:10159C0003F3D9437B680B40134318462437BD46ED
:1015AC0080BC704780B582B000AF78607B68013B2F
:1015BC00B3F1807F01D301230FE00A4A7B68013B22
:1015CC0053600F214FF0FF30FFF790FF054B0022C7
:1015DC009A60044B07221A60002318460837BD4650
:1015EC0080BD00BF10E000E080B582B000AF786035
:1015FC007868FFF749FF00BF0837BD4680BD80B54E
:10160C0086B000AF0346B9607A60FB7300237B6140
:10161C00FFF75EFF78617A68B9687869FFF790FF29
:10162C00024697F90F3011461846FFF75FFF00BFCF
:10163C001837BD4680BD80B582B000AF7860786841
:10164C00FFF7B0FF034618460837BD4680BD0000C3
:10165C0080B48BB000AF7860396000237B620023CC
:10166C003B6269E101227B6A02FA03F3FB613B688E
:10167C001B68FA691340BB61BA69FB699A4240F076
:10168C0058813B685B689A4A93425ED0984A934271
:10169C0075D8984A934258D0964A93426FD8964A36
:1016AC00934252D0944A934269D8944A93424CD074
:1016BC00924A934263D8924A934246D0904A9342BC
:1016CC005DD8122B2AD8122B59D801A252F823F02C
:1016DC005717000831170008431700088517000832
:1016EC008B1700088B1700088B1700088B17000846
:1016FC008B1700088B1700088B1700088B17000836
:10170C008B1700088B1700088B1700088B17000825
:10171C008B170008391700084D170008794A9342B7
:10172C0013D02CE03B68DB683B6229E03B68DB684C
:10173C0004333B6224E03B68DB6808333B621FE008
:10174C003B68DB680C333B621AE03B689B68002B00
:10175C0002D104233B6213E03B689B68012B05D14B
:10176C0008233B627B68FA691A6109E008233B6233
:10177C007B68FA695A6103E000233B6200E000BF1A
:10178C00BB69FF2B01D87B6801E07B6804337B616C
:10179C00BB69FF2B02D87B6A9B0002E07B6A083B8B
:1017AC009B003B617B691A680F213B6901FA03F3CB
:1017BC00DB431A40396A3B6901FA03F31A437B692C
:1017CC001A603B685B6803F08053002B00F0B1801B
:1017DC004D4B9B694C4A43F0010393614A4B9B6907
:1017EC0003F00103BB60BB68484A7B6A9B08023369
:1017FC0052F82330FB607B6A03F003039B000F223B
:10180C0002FA03F3DB43FA681340FB607B68404A3F
:10181C00934213D07B683F4A93420DD07B683E4A7B
:10182C00934207D07B683D4A934201D1032306E0E3
:10183C00042304E0022302E0012300E000237A6A7F
:10184C0002F0030292009340FA681343FB602F49A5
:10185C007B6A9B080233FA6841F823203B685B687B
:10186C0003F48013002B06D02D4B9A682C49BB69CE
:10187C0013438B6006E02A4B9A68BB69DB4328490B
:10188C0013408B603B685B6803F40013002B06D09D
:10189C00234BDA682249BB691343CB6006E0204B2B
:1018AC00DA68BB69DB431E491340CB603B685B685D
:1018BC0003F40033002B06D0194B5A681849BB6946
:1018CC0013434B6006E0164B5A68BB69DB43144963
:1018DC0013404B603B685B6803F48033002B21D0D2
:1018EC000F4B1A680E49BB6913430B6021E000BF14
:1018FC0000003210000031100000221000002110F6
:10190C0000001210000011100010024000000140F5
:10191C0000080140000C014000100140001401407F
:10192C00000401400B4B1A68BB69DB4309491340A7
:10193C000B607B6A01337B623B681A687B6A22FA14
:10194C0003F3002B7FF48EAE00BF00BF2C37BD46D7
:10195C0080BC70470004014080B485B000AF786053
:10196C000B467B807B689A687B881340002B02D0E7
:10197C000123FB7301E00023FB73FB7B1846143738
:10198C00BD4680BC704780B483B000AF78600B4616
:10199C007B8013467B707B78002B03D07A887B6826
:1019AC001A6103E07B881A047B681A6100BF0C374C
:1019BC00BD4680BC7047000080B586B000AF786033
:1019CC007B68002B01D1012372E27B681B6803F05A
:1019DC000103002B00F08780924B5B6803F00C0333
:1019EC00042B0CD08F4B5B6803F00C03082B12D12B
:1019FC008C4B5B6803F48033B3F5803F0BD1894B80
:101A0C001B6803F40033002B6CD07B685B68002BE5
:101A1C0068D101234CE27B685B68B3F5803F06D14B
:101A2C00804B1B687F4A43F4803313602EE07B6845
:101A3C005B68002B0CD17B4B1B687A4A23F48033F8
:101A4C001360784B1B68774A23F4802313601DE0E6
:101A5C007B685B68B3F5A02F0CD1724B1B68714A85
:101A6C0043F4802313606F4B1B686E4A43F480333E
:101A7C0013600BE06B4B1B686A4A23F480331360D2
:101A8C00684B1B68674A23F4802313607B685B6890
:101A9C00002B13D0FFF7CAFC386108E0FFF7C6FC37
:101AAC0002463B69D31A642B01D9032300E25D4B38
:101ABC001B6803F40033002BF0D014E0FFF7B6FCE6
:101ACC00386108E0FFF7B2FC02463B69D31A642B7D
:101ADC0001D90323ECE1534B1B6803F40033002BB7
:101AEC00F0D100E000BF7B681B6803F00203002B01
:101AFC0063D04C4B5B6803F00C03002B0BD0494BB1
:101B0C005B6803F00C03082B1CD1464B5B6803F499
:101B1C008033002B16D1434B1B6803F00203002BC0
:101B2C0005D07B681B69012B01D00123C0E13D4B23
:101B3C001B6823F0F8027B685B69DB0039491343AF
:101B4C000B603AE07B681B69002B20D0364B0122DE
:101B5C001A60FFF76BFC386108E0FFF767FC024680
:101B6C003B69D31A022B01D90323A1E12D4B1B682E
:101B7C0003F00203002BF0D02A4B1B6823F0F80271
:101B8C007B685B69DB00274913430B6015E0264B30
:101B9C0000221A60FFF74AFC386108E0FFF746FCA8
:101BAC0002463B69D31A022B01D9032380E11D4B5A
:101BBC001B6803F00203002BF0D17B681B6803F059
:101BCC000803002B3AD07B689B69002B19D0174B6C
:101BDC0001221A60FFF72AFC386108E0FFF726FCA7
:101BEC0002463B69D31A022B01D9032360E10D4B4A
:101BFC005B6A03F00203002BF0D0012000F0CEFA58
:101C0C001CE00A4B00221A60FFF710FC38610FE051
:101C1C00FFF70CFC02463B69D31A022B08D90323AD
:101C2C0046E100BF001002400000424280044242E4
:101C3C00924B5B6A03F00203002BE9D17B681B68B3
:101C4C0003F00403002B00F0A6800023FB758B4BE4
:101C5C00DB6903F08053002B0DD1884BDB69874A7D
:101C6C0043F08053D361854BDB6903F08053BB6039
:101C7C00BB680123FB75824B1B6803F48073002B3C
:101C8C0018D17F4B1B687E4A43F480731360FFF7B7
:101C9C00CDFB386108E0FFF7C9FB02463B69D31A5C
:101CAC00642B01D9032303E1754B1B6803F4807388
:101CBC00002BF0D07B68DB68012B06D16F4B1B6AC5
:101CCC006E4A43F0010313622DE07B68DB68002B46
:101CDC000CD16A4B1B6A694A23F001031362674BF0
:101CEC001B6A664A23F0040313621CE07B68DB6802
:101CFC00052B0CD1614B1B6A604A43F00403136241
:101D0C005E4B1B6A5D4A43F0010313620BE05B4BB5
:101D1C001B6A5A4A23F001031362584B1B6A574A39
:101D2C0023F0040313627B68DB68002B15D0FFF7EC
:101D3C007DFB38610AE0FFF779FB02463B69D31A59
:101D4C0041F28832934201D90323B1E04B4B1B6A19
:101D5C0003F00203002BEED014E0FFF767FB3861B1
:101D6C000AE0FFF763FB02463B69D31A41F2883263
:101D7C00934201D903239BE0404B1B6A03F00203FF
:101D8C00002BEED1FB7D012B05D13C4BDB693B4A93
:101D9C0023F08053D3617B68DB69002B00F08780D4
:101DAC00364B5B6803F00C03082B61D07B68DB6956
:101DBC00022B46D1334B00221A60FFF737FB3861F8
:101DCC0008E0FFF733FB02463B69D31A022B01D91B
:101DDC0003236DE0294B1B6803F00073002BF0D13B
:101DEC007B681B6AB3F5803F08D1244B5B6823F4F6
:101DFC0000327B689B68214913434B601F4B5B6827
:101E0C0023F474127B68196A7B685B6A0B431B4969
:101E1C0013434B601B4B01221A60FFF707FB386121
:101E2C0008E0FFF703FB02463B69D31A022B01D9EA
:101E3C0003233DE0114B1B6803F00073002BF0D023
:101E4C0035E0104B00221A60FFF7F0FA386108E019
:101E5C00FFF7ECFA02463B69D31A022B01D9032394
:101E6C0026E0064B1B6803F00073002BF0D11EE03C
:101E7C007B68DB69012B07D1012319E000100240BC
:101E8C0000700040600042420B4B5B68FB60FB68DB
:101E9C0003F480327B681B6A9A4206D1FB6803F418
:101EAC0070127B685B6A9A4201D0012300E0002328
:101EBC0018461837BD4680BD0010024080B584B06E
:101ECC0000AF786039607B68002B01D10123D0E032
:101EDC006A4B1B6803F007033A689A4210D9674BA8
:101EEC001B6823F0070265493B6813430B60634B87
:101EFC001B6803F007033A689A4201D00123B8E04B
:101F0C007B681B6803F00203002B20D07B681B68E6
:101F1C0003F00403002B05D0594B5B68584A43F47B
:101F2C00E06353607B681B6803F00803002B05D04B
:101F3C00534B5B68524A43F460535360504B5B689D
:101F4C0023F0F0027B689B684D4913434B607B6820
:101F5C001B6803F00103002B40D07B685B68012BEE
:101F6C0007D1474B1B6803F40033002B15D1012319
:101F7C007FE07B685B68022B07D1414B1B6803F049
:101F8C000073002B09D1012373E03D4B1B6803F058
:101F9C000203002B01D101236BE0394B5B6823F06A
:101FAC0003027B685B68364913434B60FFF73EFACC
:101FBC00F8600AE0FFF73AFA0246FB68D31A41F2DE
:101FCC008832934201D9032353E02D4B5B6803F015
:101FDC000C027B685B689B009A42EBD1274B1B6819
:101FEC0003F007033A689A4210D2244B1B6823F083
:101FFC00070222493B6813430B60204B1B6803F01C
:10200C0007033A689A4201D0012332E07B681B68CF
:10201C0003F00403002B08D0194B5B6823F4E06237
:10202C007B68DB68164913434B607B681B6803F0C5
:10203C000803002B09D0124B5B6823F460527B68B9
:10204C001B69DB000E4913434B6000F021F802467C
:10205C000B4B5B681B0903F00F030A49CB5C22FA9C
:10206C0003F3094A1360094B1B681846FFF79CF9E8
:10207C00002318461037BD4680BD00BF002002402B
:10208C0000100240443E0008000000200400002024
:10209C0080B487B000AF0023FB600023BB6000233B
:1020AC007B6100237B6000233B611E4B5B68FB6004
:1020BC00FB6803F00C03042B02D0082B03D027E0A1
:1020CC00194B3B6127E0FB689B0C03F00F03174A8D
:1020DC00D35C7B60FB6803F48033002B10D0114B76
:1020EC005B685B0C03F00103114AD35CBB607B683B
:1020FC000D4A03FB02F2BB68B2FBF3F37B6104E015
:10210C007B680C4A02FB03F37B617B693B6102E059
:10211C00054B3B6100BF3B6918461C37BD4680BC74
:10212C00704700BF0010024000127A005C3E0008AD
:10213C006C3E000800093D0080B400AF024B1B68E8
:10214C001846BD4680BC70470000002080B500AF2B
:10215C00FFF7F2FF0246054B5B681B0A03F007030F
:10216C000349CB5C22FA03F3184680BD00100240F1
:10217C00543E000880B500AFFFF7DEFF0246054B6A
:10218C005B68DB0A03F007030349CB5C22FA03F319
:10219C00184680BD00100240543E000880B485B043
:1021AC0000AF78600A4B1B680A4AA2FB03235B0A48
:1021BC007A6802FB03F3FB6000BFFB685A1EFA60EF
:1021CC00002BF9D100BF00BF1437BD4680BC70474F
:1021DC0000000020D34D621080B582B000AF786053
:1021EC007B68002B01D1012341E07B6893F83D30E3
:1021FC00DBB2002B06D17B68002283F83C20786888
:10220C00FEF796FF7B68022283F83D207B681A68F4
:10221C007B6804331946104600F092F97B68012262
:10222C0083F846207B68012283F83E207B680122DC
:10223C0083F83F207B68012283F840207B680122D1
:10224C0083F841207B68012283F842207B680122BD
:10225C0083F843207B68012283F844207B680122A9
:10226C0083F845207B68012283F83D200023184623
:10227C000837BD4680BD000080B584B000AF7860E3
:10228C0039603B68002B09D17B6893F83E30DBB298
:10229C00012B14BF01230023DBB222E03B68042B8B
:1022AC0009D17B6893F83F30DBB2012B14BF0123BB
:1022BC000023DBB215E03B68082B09D17B6893F84F
:1022CC004030DBB2012B14BF01230023DBB208E04A
:1022DC007B6893F84130DBB2012B14BF0123002340
:1022EC00DBB2002B01D001235EE03B68002B04D154
:1022FC007B68022283F83E2013E03B68042B04D158
:10230C007B68022283F83F200BE03B68082B04D14A
:10231C007B68022283F8402003E07B68022283F86A
:10232C0041207B681B6801223968184600F0FEFAD0
:10233C007B681B681E4A934207D17B681B685A6CEA
:10234C007B681B6842F400425A647B681B68184A1D
:10235C0093420ED07B681B68B3F1804F09D07B6829
:10236C001B68144A934204D07B681B68124A934240
:10237C0011D17B681B689B6803F00703FB60FB684B
:10238C00062B10D07B681B681A687B681B6842F0B0
:10239C0001021A6007E07B681B681A687B681B687F
:1023AC0042F001021A60002318461037BD4680BD6A
:1023BC00002C0140000400400008004080B586B0AD
:1023CC0000AFF860B9607A600023FB75FB6893F886
:1023DC003C30012B01D10223AEE0FB68012283F8D3
:1023EC003C207B680C2B00F29F8001A252F823F05A
:1023FC00312400083525000835250008352500084E
:10240C0071240008352500083525000835250008FD
:10241C00B3240008352500083525000835250008AB
:10242C00F3240008FB681B68B968184600F0F6F83E
:10243C00FB681B689A69FB681B6842F008029A618A
:10244C00FB681B689A69FB681B6822F004029A619E
:10245C00FB681B689969BB681A69FB681B680A43AF
:10246C009A6164E0FB681B68B968184600F03CF997
:10247C00FB681B689A69FB681B6842F400629A61EE
:10248C00FB681B689A69FB681B6822F480629A617E
:10249C00FB681B689969BB681B691A02FB681B689F
:1024AC000A439A6143E0FB681B68B968184600F060
:1024BC0085F9FB681B68DA69FB681B6842F0080247
:1024CC00DA61FB681B68DA69FB681B6822F004029E
:1024DC00DA61FB681B68D969BB681A69FB681B6801
:1024EC000A43DA6123E0FB681B68B968184600F000
:1024FC00CFF9FB681B68DA69FB681B6842F4006261
:10250C00DA61FB681B68DA69FB681B6822F480627D
:10251C00DA61FB681B68D969BB681B691A02FB6826
:10252C001B680A43DA6102E00123FB7500BFFB68FC
:10253C00002283F83C20FB7D18461837BD4680BD31
:10254C0080B485B000AF786039607B681B68FB6035
:10255C007B682F4A93420BD07B68B3F1804F07D036
:10256C007B682C4A934203D07B682B4A934208D158
:10257C00FB6823F07003FB603B685B68FA681343ED
:10258C00FB607B68224A93420BD07B68B3F1804F8F
:10259C0007D07B681F4A934203D07B681E4A934244
:1025AC0008D1FB6823F44073FB603B68DB68FA6876
:1025BC001343FB60FB6823F080023B685B691343A9
:1025CC00FB607B68FA681A603B689A687B68DA6221
:1025DC003B681A687B689A627B680D4A934203D108
:1025EC003B681A697B681A637B6801225A617B68B5
:1025FC001B6903F00103002B05D07B681B6923F0DA
:10260C0001027B681A6100BF1437BD4680BC70475D
:10261C00002C0140000400400008004080B487B04A
:10262C0000AF786039607B681B6A7B617B681B6AD2
:10263C0023F001027B681A627B685B683B617B68F4
:10264C009B69FB60FB6823F07003FB60FB6823F065
:10265C000303FB603B681B68FA681343FB607B69F0
:10266C0023F002037B613B689B687A6913437B61AF
:10267C007B681C4A93420CD17B6923F008037B6175
:10268C003B68DB687A6913437B617B6923F0040345
:10269C007B617B68134A934211D13B6923F48073AD
:1026AC003B613B6923F400733B613B685B693A69AE
:1026BC0013433B613B689B693A6913433B617B68FD
:1026CC003A695A607B68FA689A613B685A687B6819
:1026DC005A637B687A691A6200BF1C37BD4680BC9E
:1026EC00704700BF002C014080B487B000AF786009
:1026FC0039607B681B6A7B617B681B6A23F0100264
:10270C007B681A627B685B683B617B689B69FB60DA
:10271C00FB6823F4E043FB60FB6823F44073FB602D
:10272C003B681B681B02FA681343FB607B6923F050
:10273C0020037B613B689B681B017A6913437B61B7
:10274C007B681D4A93420DD17B6923F080037B612A
:10275C003B68DB681B017A6913437B617B6923F05F
:10276C0040037B617B68144A934213D13B6923F489
:10277C0080633B613B6923F400633B613B685B69AD
:10278C009B003A6913433B613B689B699B003A6928
:10279C0013433B617B683A695A607B68FA689A61BB
:1027AC003B685A687B689A637B687A691A6200BFD7
:1027BC001C37BD4680BC7047002C014080B487B0EC
:1027CC0000AF786039607B681B6A7B617B681B6A31
:1027DC0023F480727B681A627B685B683B617B6860
:1027EC00DB69FB60FB6823F07003FB60FB6823F084
:1027FC000303FB603B681B68FA681343FB607B694F
:10280C0023F400737B613B689B681B027A6913435A
:10281C007B617B681D4A93420DD17B6923F4006375
:10282C007B613B68DB681B027A6913437B617B69C4
:10283C0023F480637B617B68144A934213D13B6918
:10284C0023F480533B613B6923F400533B613B68A9
:10285C005B691B013A6913433B613B689B691B0134
:10286C003A6913433B617B683A695A607B68FA6842
:10287C00DA613B685A687B68DA637B687A691A624A
:10288C0000BF1C37BD4680BC704700BF002C014008
:10289C0080B487B000AF786039607B681B6A3B619D
:1028AC007B681B6A23F480527B681A627B685B68C6
:1028BC007B617B68DB69FB60FB6823F4E043FB60B6
:1028CC00FB6823F44073FB603B681B681B02FA68CF
:1028DC001343FB603B6923F400533B613B689B68EB
:1028EC001B033A6913433B617B680F4A934209D13E
:1028FC007B6923F480437B613B685B699B017A694C
:10290C0013437B617B687A695A607B68FA68DA6189
:10291C003B685A687B681A647B683A691A6200BF24
:10292C001C37BD4680BC7047002C014080B487B07A
:10293C0000AFF860B9607A60BB6803F01F03012236
:10294C0002FA03F37B61FB681A6A7B69DB431A406A
:10295C00FB681A62FB681A6ABB6803F01F0379688C
:10296C0001FA03F31A43FB681A6200BF1C37BD4619
:10297C0080BC704780B485B000AF786039607B68EC
:10298C0093F83C30012B01D1022346E07B680122F5
:10299C0083F83C207B68022283F83D207B681B680F
:1029AC005B68FB607B681B689B68BB60FB6823F003
:1029BC007003FB603B681B68FA681343FB607B6821
:1029CC001B68FA685A607B681B68164A93420ED0E3
:1029DC007B681B68B3F1804F09D07B681B68124A77
:1029EC00934204D07B681B68104A93420CD1BB689D
:1029FC0023F08003BB603B685B68BA681343BB6021
:102A0C007B681B68BA689A607B68012283F83D205A
:102A1C007B68002283F83C20002318461437BD46FF
:102A2C0080BC7047002C01400004004000080040AE
:102A3C0080B582B000AF78607B68002B01D1012398
:102A4C0042E07B6893F84130DBB2002B06D17B6807
:102A5C00002283F840207868FEF7B6FB7B682422BE
:102A6C0083F841207B681B68DA687B681B6822F45A
:102A7C000052DA60786800F009FA7B681B681A6902
:102A8C007B681B6822F490421A617B681B685A6948
:102A9C007B681B6822F02A025A617B681B68DA6823
:102AAC007B681B6842F40052DA607B6800225A642F
:102ABC007B68202283F841207B68202283F8422007
:102ACC007B6800225A63002318460837BD4680BD38
:102ADC0080B58AB002AFF860B9603B601346FB80EA
:102AEC0000237B61FB6893F84130DBB2202B75D15E
:102AFC00BB68002B02D0FB88002B01D101236EE0B8
:102B0C00FB6800225A64FB68212283F84120FEF7FF
:102B1C008DFC7861FB68FA889A84FB68FA88DA8401
:102B2C00FB689B68B3F5805F08D1FB681B69002BC1
:102B3C0004D10023FB61BB68BB6103E0BB68FB6194
:102B4C000023BB612EE03B6800937B69002280214F
:102B5C00F86800F0DFF80346002B05D0FB68202254
:102B6C0083F8412003233AE0FB69002B0BD1BB69AE
:102B7C001B881A46FB681B68C2F308025A60BB69C3
:102B8C000233BB6107E0FB691A78FB681B685A606B
:102B9C00FB690133FB61FB68DB8C9BB2013B9AB296
:102BAC00FB68DA84FB68DB8C9BB2002BCBD13B68D7
:102BBC0000937B6900224021F86800F0ABF80346D3
:102BCC00002B05D0FB68202283F84120032306E06C
:102BDC00FB68202283F84120002300E002231846E2
:102BEC002037BD4680BD80B58AB002AFF860B960B1
:102BFC003B601346FB8000237B61FB6893F84230FB
:102C0C00DBB2202B40F08180BB68002B02D0FB880C
:102C1C00002B01D1012379E0FB6800225A64FB6888
:102C2C00222283F84220FB6800221A63FEF7FEFB87
:102C3C007861FB68FA889A85FB68FA88DA85FB6804
:102C4C009B68B3F5805F08D1FB681B69002B04D12E
:102C5C000023FB61BB68BB6103E0BB68FB61002325
:102C6C00BB6147E03B6800937B6900222021F86838
:102C7C0000F050F80346002B05D0FB68202283F8A7
:102C8C004220032342E0FB69002B0CD1FB681B683C
:102C9C005B689BB2C3F308039AB2BB691A80BB6929
:102CAC000233BB611FE0FB689B68B3F5805F07D004
:102CBC00FB689B68002B0AD1FB681B69002B06D1B3
:102CCC00FB681B685B68DAB2FB691A7008E0FB688A
:102CDC001B685B68DBB203F07F03DAB2FB691A7026
:102CEC00FB690133FB61FB68DB8D9BB2013B9AB244
:102CFC00FB68DA85FB68DB8D9BB2002BB2D1FB68DD
:102D0C00202283F84220002300E0022318462037BB
:102D1C00BD4680BD80B586B000AFF860B9603B6041
:102D2C001346FB713BE03B6AB3F1FF3F37D0FEF734
:102D3C007DFB02463B68D31A3A6A9A4202D33B6A3D
:102D4C00002B01D103233AE0FB681B68DB6803F01E
:102D5C000403002B23D0BB68802B20D0BB68402BF6
:102D6C001DD0FB681B681B6803F00803082B16D1E9
:102D7C0000237B61FB681B681B687B61FB681B681D
:102D8C005B687B617B69F86800F01DF8FB680822C2
:102D9C005A64FB68002283F8402001230FE0FB6893
:102DAC001B681A68BB681340BA689A420CBF0123AF
:102DBC000023DBB21A46FB799A42B4D000231846A2
:102DCC001837BD4680BD80B495B000AF78607B6885
:102DDC001B680C337B637B6B53E8003F3B633B6BA3
:102DEC0023F49073FB647B681B680C33FA6C3A64B5
:102DFC00FB63F96B3A6C41E80023BB63BB6B002BA4
:102E0C00E5D17B681B6814333B623B6A53E8003F97
:102E1C00FB61FB6923F00103BB647B681B68143303
:102E2C00BA6CFA62BB62B96AFA6A41E800237B6247
:102E3C007B6A002BE5D17B681B6B012B19D17B685E
:102E4C001B680C33FB60FB6853E8003FBB60BB683E
:102E5C0023F010037B647B681B680C337A6CBA61BB
:102E6C007B617969BA6941E800233B613B69002BBE
:102E7C00E5D17B68202283F842207B6800221A630C
:102E8C0000BF5437BD4680BC7047000080B584B08D
:102E9C0000AF78607B681B681B6923F440517B682A
:102EAC00DA687B681B680A431A617B689A687B68DE
:102EBC001B691A437B685B691343BB607B681B68A7
:102ECC00DB6823F4B05323F00C037A681268B968FA
:102EDC000B43D3607B681B685B6923F440717B6890
:102EEC009A697B681B680A435A617B681B682C4A89
:102EFC00934203D1FFF73EF9F86002E0FFF726F9A1
:102F0C00F860FA6813469B0013449A001A447B68D5
:102F1C005B689B00B2FBF3F3224AA2FB03235B0921
:102F2C001901FA6813469B0013449A001A447B68F3
:102F3C005B689B00B2FBF3F21A4BA3FB02035B0929
:102F4C00642000FB03F3D31A1B013233154AA2FB96
:102F5C0003235B0903F0F0031944FA6813469B0042
:102F6C0013449A001A447B685B689B00B2FBF3F233
:102F7C000C4BA3FB02035B09642000FB03F3D31A85
:102F8C001B013233074AA2FB03235B0903F00F0238
:102F9C007B681B680A449A6000BF1037BD4680BD31
:102FAC00003801401F85EB510EB46FF0004110B595
:102FBC0000249DB01FAB0290069007910491094824
:102FCC00094953F8042B0591006802A901931B943D
:102FDC0000F0B6F9029B1C701DB0BDE8104003B0A8
:102FEC00704700BF0C0000200802FFFF034602449C
:102FFC00934200D1704703F8011BF9E70346C9B2AD
:10300C00184613F8012B12B18A42F9D170470029E6
:10301C0018BF002070470A7870B56AB970BD9A4223
:10302C0009D10C46054614F8013F002BF6D015F8D3
:10303C00016F9E42F7D001300378002BEFD1184678
:10304C00ECE70000014B1868704700BF0C00002033
:10305C0070B500260C4D0D4C641BA410A64209D172
:10306C0000F076FC00260A4D0A4C641BA410A64204
:10307C0005D170BD55F8043B98470136EEE755F87D
:10308C00043B98470136F2E7AC3E0008AC3E000822
:10309C00AC3E0008B03E00087047704738B5054696
:1030AC00002940D051F8043C0C1F002BB8BFE41889
:1030BC0000F0DEF81C4A136833B9636014602846CC
:1030CC00BDE8384000F0DAB8A34208D920682118CE
:1030DC008B4201BF19685B6809182160EDE71A463D
:1030EC005B680BB1A342FAD911685018A0420BD1FE
:1030FC0020680144501883421160E0D118685B6865
:10310C00084410605360DAE702D90C232B60D6E731
:10311C00206821188B4201BF19685B68091821606F
:10312C0063605460CBE738BD5402002070B50F4E7D
:10313C000C463168054611B900F0A8FB30602146F9
:10314C00284600F0A3FB431C03D14FF0FF3420466C
:10315C0070BDC41C24F00304A042F8D0211A2846E8
:10316C0000F094FB0130F2D1EFE700BF50020020D9
:10317C002DE9F843CD1C25F0030508350C2D38BF7F
:10318C000C25002D064601DBA94204D90C23336023
:10319C000020BDE8F883DFF8D48000F069F8D8F897
:1031AC0000301C4644BB29463046FFF7BFFF431C8A
:1031BC00044658D1D8F800402746002F43D1002CA4
:1031CC004BD023683946304604EB030900F05EFB14
:1031DC00814542D1216830466D1A2946FFF7A6FF7A
:1031EC0001303AD023682B442360D8F800305A6859
:1031FC0062BBC8F800700FE02268521B20D40B2A67
:10320C0017D96119A342256018BF5960636808BFBC
:10321C00C8F8001062514B60304600F02FF804F1F2
:10322C000B00231D20F00700C21A1CBF1B1AA35051
:10323C00AFE76268A3420CBFC8F800205A60EBE706
:10324C0023466468AEE73C467F68B6E71A465B687F
:10325C00A342FBD100235360DEE70C2330463360DE
:10326C0000F00CF894E70560D6E700BF540200208C
:10327C000148FFF711BF00BF4C0200200148FFF7C7
:10328C000CBF00BF4C0200202DE9F0471F468E6892
:10329C008246BE420C4690460B682DD8B1F90C20E4
:1032AC0012F4906F26D06569096905EB4505A3EB0F
:1032BC00010905EBD5757B1C4B446D109D4238BF45
:1032CC001D46530527D52946FFF752FF064660B326
:1032DC004A46216900F0F8FAA38923F4906343F07D
:1032EC008003A38126614E4426603E466561A5EBB2
:1032FC000905A560BE4200D93E46324641462068CB
:10330C0000F0AAFA0020A3689B1BA3602368334437
:10331C002360BDE8F0872A4600F0E4FA0646002850
:10332C00E0D150462169FFF7B9FE0C23CAF80030F2
:10333C00A3894FF0FF3043F04003A381E9E700007D
:10334C002DE9F04F98468B8907461B060D4614460F
:10335C009DB010D50B6973B94021FFF709FF2860A8
:10336C00286130B90C233B604FF0FF301DB0BDE835
:10337C00F08F40236B610023099320238DF82930B3
:10338C0030234FF00109CDF80C80DFF898818DF8CF
:10339C002A3023469A4613F8012B0AB1252AF9D173
:1033AC00BAEB040B0BD05B46224629463846FFF796
:1033BC006BFF013000F0A780099A5A4409929AF8E1
:1033CC000030002B00F09F8000234FF0FF32CDE93E
:1033DC0005230AF1010A049307938DF853301A93CD
:1033EC005446052214F8011B4E4800F05FFA049A6B
:1033FC00D8B9D00644BF20238DF85330110744BFF1
:10340C002B238DF853309AF800302A2B15D05446C4
:10341C0000204FF00A0C079A214611F8013B303B73
:10342C00092B4BD9B0B1079214E0A0EB080309FAB1
:10343C0003F31343A2460493D2E7039B191D1B68A5
:10344C000391002BBBBF5B4242F002020793079330
:10345C00B8BF049223782E2B0AD163782A2B32D151
:10346C00039B02341A1D1B68039243EAE373059312
:10347C00DFF8B4A003225046217800F017FA38B1D7
:10348C004022049BA0EB0A008240134301340493B6
:10349C0014F8011B062225488DF8281000F006FAB6
:1034AC00002836D0224B1BBB039B073323F00703AA
:1034BC0008330393099B334409936AE70C460120B4
:1034CC000CFB0232A8E700234FF00A0C194601341A
:1034DC000593204610F8012B303A092A03D9002B0A
:1034EC00C6D00591C4E7044601230CFB0121F0E78B
:1034FC0003AB00932A4638460E4B04A9AFF3008069
:10350C00421C0646D6D1AB895B063FF52DAF099818
:10351C002CE703AB00932A463846064B04A900F06F
:10352C007DF8EDE76E3E0008743E0008783E00081A
:10353C0000000000953200082DE9F0471646984629
:10354C008A680B6907469342B8BF1346336091F8FB
:10355C0043200C46DDF820900AB101333360236818
:10356C00990642BF336802333360256815F00605AF
:10357C0006D104F1190AE36832689B1AAB422BDCC2
:10358C0094F843302268003B18BF0123920630D4D4
:10359C004146384604F14302C847013023D0236822
:1035AC00226903F00603042B14BF002533684FF087
:1035BC00000608BFE56804F11A0408BFED1A54F8B8
:1035CC00123C08BF25EAE5759342C4BF9B1AED185F
:1035DC00B5421AD1002008E0012352464146384634
:1035EC00C847013003D14FF0FF30BDE8F0870135FB
:1035FC00C1E73020E11881F843005A1C94F84510BB
:10360C002244023382F84310C2E70123224641468A
:10361C003846C8470130E6D00136D9E72DE9FF47D7
:10362C000F7E9146782F80460C469A460C9E01F1EF
:10363C00430207D8622F0AD8002F00F0D180582FF0
:10364C0000F0B88004F1420684F842703AE0A7F129
:10365C006303152BF6D801A151F823F0C1360008ED
:10366C00D53600085136000851360008513600088E
:10367C0051360008D536000851360008513600087E
:10368C005136000851360008D3370008FF360008C1
:10369C008D3700085136000851360008F537000800
:1036AC0051360008FF360008513600085136000824
:1036BC009537000833681A1D1B68326004F1420606
:1036CC0084F8423001239CE033682068191D316076
:1036DC00060601D51D6803E04506FBD5B3F900507D
:1036EC00002D03DA2D236D4284F843300A23584809
:1036FC0011E021683368080653F8045B02D44906CC
:10370C0048BFADB26F2F336014BF0A230823504853
:10371C00002184F843106668002EA66005DB216842
:10372C002E4321F0040121604BD01646B5FBF3F17A
:10373C0003FB1157C75D06F8017D2F46BB420D46B2
:10374C00F4D9082B0BD12368DF0708D523696168EE
:10375C009942DEBF302306F8013C06F1FF36921B7E
:10376C0022614B4621464046CDF800A003AAFFF744
:10377C00E3FE01304AD14FF0FF3004B0BDE8F087D2
:10378C00236843F0200323607827324884F845707F
:10379C00236831681F0651F8045B02D45F0648BFEA
:1037AC00ADB23160D90744BF43F0200323601DB193
:1037BC001023ADE72648E9E7236823F020032360B4
:1037CC00F6E71646BDE733682568181D6169306059
:1037DC002E061B6801D5196002E06806FBD519801E
:1037EC00002316462361BCE7336800211A1D3260A2
:1037FC001E686268304600F059F808B1801B6060A2
:10380C0063682361002384F84330AAE732464946B3
:10381C0040462369D0470130ADD023689B0713D4B1
:10382C00E068039B9842B8BF1846A6E701233246CE
:10383C0049464046D04701309DD00135E368039995
:10384C005B1AAB42F2DCEBE7002504F11906F5E755
:10385C007F3E0008903E0008884210B501EB020440
:10386C0002D98442234607D8431EA14208D011F83E
:10387C00012B03F8012FF8E7014602448A4200D1DC
:10388C0010BD13F8014D02F8014DF7E738B50023D0
:10389C00054D044608462B60FDF70EFD431C02D176
:1038AC002B6803B1236038BD48020020034610B5D5
:1038BC00C9B202449342184601D1002003E00478B7
:1038CC0001338C42F6D110BD0A44914200F1FF3312
:1038DC0000D1704710B511F8014B914203F8014F1C
:1038EC00F9D110BD2DE9F041074614460D4621B91A
:1038FC001146BDE8F041FFF73BBC2AB9FFF7CEFB00
:10390C0025462846BDE8F08100F01AF884420646A8
:10391C0002D8B4EB500FF4D821463846FFF728FCF8
:10392C00804608B94546ECE7B4422246294628BFF2
:10393C003246FFF7C9FF29463846FFF7AFFBF1E7E0
:10394C0051F8043C181F002BBCBF0B58C018704713
:10395C00F8B500BFF8BC08BC9E467047F8B500BF70
:08396C00F8BC08BC9E46704740
:103974003C21444F43545950452068746D6C3E3C7F
:1039840068746D6C3E0A3C686561643E0A202020C0
:10399400203C7469746C653E53544D3332202D20A1
:1039A400455350383236363C2F7469746C653E0A80
:1039B4003C6C696E6B20687265663D22646174615B
:1039C4003A696D6167652F782D69636F6E3B62613B
:1039D400736536342C2020202041222072656C3DF2
:1039E4002269636F6E2220747970653D22696D616E
:1039F40067652F782D69636F6E223E3C7374796C12
:103A0400653E0A68746D6C207B20202020646973F5
:103A1400706C61793A20696E6C696E652D626C6FA9
:103A2400636B3B206D617267696E3A203070782059
:103A34006175746F3B20746578742D616C69676E71
:103A44003A2063656E7465723B7D0A2020202062F3
:103A54006F64797B6D617267696E2D746F703A2043
:103A6400353070783B7D0A2E627574746F6E207BDE
:103A7400646973706C61793A20626C6F636B3B0AA2
:103A84002020202077696474683A20373070783BAE
:103A94000A6261636B67726F756E642D636F6C6F1E
:103AA400723A20233030383030303B0A626F72640F
:103AB40065723A206E6F6E653B0A636F6C6F723A83
:103AC4002077686974653B0A202020207061646453
:103AD400696E673A203134707820323870783B0A46
:103AE400746578742D6465636F726174696F6E3A7E
:103AF400206E6F6E653B0A666F6E742D73697A650E
:103B04003A20323470783B0A202020206D6172679D
:103B1400696E3A20307078206175746F2033367086
:103B2400783B200A626F726465722D7261646975F4
:103B3400733A203570783B7D0A202020202E627550
:103B440074746F6E2D6F6E207B6261636B67726F2E
:103B5400756E642D636F6C6F723A20233030383089
:103B640030303B7D0A2E627574746F6E2D6F6E3A21
:103B7400616374697665202020207B6261636B67D2
:103B8400726F756E642D636F6C6F723A20233030E0
:103B9400383030303B7D0A2E627574746F6E2D6F31
:103BA4006666207B6261636B67726F756E642D63FA
:103BB4006F6C6F723A20233830383038303B7D0ACE
:103BC400202020202E627574746F6E2D6F66663A05
:103BD400616374697665207B6261636B67726F757C
:103BE4006E642D636F6C6F723A202338303830382E
:103BF400303B7D0A2020202070207B666F6E742D60
:103C040073697A653A20313470783B636F6C6F72F4
:103C14003A20233830383038303B6D617267696E32
:103C24002D626F74746F6D3A20323070783B7D0A68
:103C3400202020203C2F7374796C653E0A3C2F6849
:103C44006561643E0A3C626F64793E0A3C68313EB9
:103C540053544D3332202D20455350383236363CA0
:103C64002F68313E000000003C703E4C6967687468
:103C74002069732063757272656E746C79206F6E3F
:103C8400202020203C2F703E3C6120636C617373C4
:103C94003D22627574746F6E20627574746F6E2D3C
:103CA4006F66662220687265663D222F6C696768BC
:103CB400746F6666223E4F46463C2F613E0000000C
:103CC4003C703E4C69676874206973206375727236
:103CD400656E746C79206F6666202020203C2F70FE
:103CE4003E3C6120636C6173733D22627574746F32
:103CF4006E20627574746F6E2D6F6E22206872650B
:103D0400663D222F6C696768746F6E223E4F4E3C8D
:103D14002F613E003C2F626F64793E3C2F68746DC6
:103D24006C3E000041542B5253540D0A0000000015
:103D340041542B43574D4F44455F4355523D320D3B
:103D44000A0000004F4B000041542B43575341508D
:103D54005F4355523D2253544D3332222C2231328B
:103D6400333435363738222C312C332C342C300D67
:103D74000A00000041542B43495041505F435552BF
:103D84003D223139322E3136382E35312E31220D45
:103D94000A00000041542B4349504D55583D310D04
:103DA4000A00000041542B43495053455256455292
:103DB4003D312C38300D0A002B4950442C30000082
:103DC4002B4950442C3100002B4950442C32000024
:103DD4002B4950442C3300002B4950442C34000010
:103DE4002B4950442C3500002B4950442C360000FC
:103DF4002B4950442C370000474554202F6C6967E9
:103E040068746F6E00000000474554202F6C69678A
:103E140068746F666600000041542B434950534553
:103E24004E443D25642C25640D0A000041542B4367
:103E34004950434C4F53453D25640D0A0000000092
:103E44000000000000000000010203040607080946
:103E54000000000001020304020304050607080928
:103E64000A0B0C0D0E0F10100102232D302B200015
:103E7400686C4C0065666745464700303132333420
:103E840035363738394142434445460030313233C0
:103E94003435363738396162636465660000000082
:083EA400A8C2FF7F010000002D
:043EAC0031010008D8
:043EB0000D010008F8
:103EB40000127A0010000000010000001000002031
:103EC400000000001001002078010020E001002023
:103ED40000000000000000000000000000000000DE
:103EE40000000000000000000000000000000000CE
:103EF40000000000000000000000000000000000BE
:0C3F0400000000000000000000000000B1
:040000050800133D9F
:00000001FF
